{
  "transactions": [
    {
      "hash": "0x74ad510e7ccf585157c19d2f55256ea5f87a4022ef3549437363d77f8de9c2d9",
      "transactionType": "CREATE",
      "contractName": null,
      "contractAddress": "0x290DE85ac5fcE13997049dA2975E477788830495",
      "function": null,
      "arguments": null,
      "rpc": "https://l1rpc.a1.taiko.xyz",
      "transaction": {
        "type": "0x02",
        "from": "0xe5ed6e083a49c5219acce0093cd6279a996cf553",
        "gas": "0x109659",
        "value": "0x0",
        "data": "0x608060405234801561001057600080fd5b50610e29806100206000396000f3fe608060405234801561001057600080fd5b50600436106100cf5760003560e01c806340c10f191161008c57806395d89b411161006657806395d89b41146101b3578063a457c2d7146101bb578063a9059cbb146101ce578063dd62ed3e146101e157600080fd5b806340c10f19146101625780634cd88b761461017757806370a082311461018a57600080fd5b806306fdde03146100d4578063095ea7b3146100f257806318160ddd1461011557806323b872dd14610127578063313ce5671461013a578063395093511461014f575b600080fd5b6100dc61021a565b6040516100e99190610a13565b60405180910390f35b610105610100366004610a7d565b6102ac565b60405190151581526020016100e9565b6035545b6040519081526020016100e9565b610105610135366004610aa7565b6102c6565b60385460405160ff90911681526020016100e9565b61010561015d366004610a7d565b6102ea565b610175610170366004610a7d565b610329565b005b610175610185366004610b86565b610337565b610119610198366004610bea565b6001600160a01b031660009081526033602052604090205490565b6100dc610453565b6101056101c9366004610a7d565b610462565b6101056101dc366004610a7d565b6104ff565b6101196101ef366004610c0c565b6001600160a01b03918216600090815260346020908152604080832093909416825291909152205490565b60606036805461022990610c3f565b80601f016020809104026020016040519081016040528092919081815260200182805461025590610c3f565b80156102a25780601f10610277576101008083540402835291602001916102a2565b820191906000526020600020905b81548152906001019060200180831161028557829003601f168201915b5050505050905090565b6000336102ba81858561050d565b60019150505b92915050565b6000336102d4858285610648565b6102df8585856106eb565b506001949350505050565b3360008181526034602090815260408083206001600160a01b03871684529091528120549091906102ba9082908690610324908790610c79565b61050d565b61033382826108da565b5050565b600054610100900460ff16158080156103575750600054600160ff909116105b806103715750303b158015610371575060005460ff166001145b6103d95760405162461bcd60e51b815260206004820152602e60248201527f496e697469616c697a61626c653a20636f6e747261637420697320616c72656160448201526d191e481a5b9a5d1a585b1a5e995960921b60648201526084015b60405180910390fd5b6000805460ff1916600117905580156103fc576000805461ff0019166101001790555b6104088383601261098d565b801561044e576000805461ff0019169055604051600181527f7f26b83ff96e1f2b6a682f133852f6798a09c465da95921460cefb38474024989060200160405180910390a15b505050565b60606037805461022990610c3f565b3360008181526034602090815260408083206001600160a01b0387168452909152812054909190838110156104f25760405162461bcd60e51b815260206004820152603060248201527f45524332305570677261646561626c653a2064656372656173656420616c6c6f60448201526f77616e63652062656c6f77207a65726f60801b60648201526084016103d0565b6102df828686840361050d565b6000336102ba8185856106eb565b6001600160a01b03831661057b5760405162461bcd60e51b815260206004820152602f60248201527f45524332305570677261646561626c653a20617070726f76652066726f6d207460448201526e6865207a65726f206164647265737360881b60648201526084016103d0565b6001600160a01b0382166105e75760405162461bcd60e51b815260206004820152602d60248201527f45524332305570677261646561626c653a20617070726f766520746f2074686560448201526c207a65726f206164647265737360981b60648201526084016103d0565b6001600160a01b0383811660008181526034602090815260408083209487168084529482529182902085905590518481527f8c5be1e5ebec7d5bd14f71427d1e84f3dd0314c0f7b2291e5b200ac8c7c3b925910160405180910390a3505050565b6001600160a01b0383811660009081526034602090815260408083209386168352929052205460001981146106e557818110156106d85760405162461bcd60e51b815260206004820152602860248201527f45524332305570677261646561626c653a20696e73756666696369656e7420616044820152676c6c6f77616e636560c01b60648201526084016103d0565b6106e5848484840361050d565b50505050565b6001600160a01b03831661075a5760405162461bcd60e51b815260206004820152603060248201527f45524332305570677261646561626c653a207472616e736665722066726f6d2060448201526f746865207a65726f206164647265737360801b60648201526084016103d0565b6001600160a01b0382166107c75760405162461bcd60e51b815260206004820152602e60248201527f45524332305570677261646561626c653a207472616e7366657220746f20746860448201526d65207a65726f206164647265737360901b60648201526084016103d0565b6001600160a01b0383166000908152603360205260409020548181101561084a5760405162461bcd60e51b815260206004820152603160248201527f45524332305570677261646561626c653a207472616e7366657220616d6f756e6044820152707420657863656564732062616c616e636560781b60648201526084016103d0565b6001600160a01b03808516600090815260336020526040808220858503905591851681529081208054849290610881908490610c79565b92505081905550826001600160a01b0316846001600160a01b03167fddf252ad1be2c89b69c2b068fc378daa952ba7f163c4a11628f55a4df523b3ef846040516108cd91815260200190565b60405180910390a36106e5565b6001600160a01b0382166109435760405162461bcd60e51b815260206004820152602a60248201527f45524332305570677261646561626c653a206d696e7420746f20746865207a65604482015269726f206164647265737360b01b60648201526084016103d0565b80603560008282546109559190610c79565b90915550506001600160a01b03821660009081526033602052604081208054839290610982908490610c79565b909155506103339050565b600054610100900460ff166109b45760405162461bcd60e51b81526004016103d090610c9a565b61044e838383600054610100900460ff166109e15760405162461bcd60e51b81526004016103d090610c9a565b60366109ed8482610d33565b5060376109fa8382610d33565b506038805460ff191660ff929092169190911790555050565b600060208083528351808285015260005b81811015610a4057858101830151858201604001528201610a24565b506000604082860101526040601f19601f8301168501019250505092915050565b80356001600160a01b0381168114610a7857600080fd5b919050565b60008060408385031215610a9057600080fd5b610a9983610a61565b946020939093013593505050565b600080600060608486031215610abc57600080fd5b610ac584610a61565b9250610ad360208501610a61565b9150604084013590509250925092565b634e487b7160e01b600052604160045260246000fd5b600082601f830112610b0a57600080fd5b813567ffffffffffffffff80821115610b2557610b25610ae3565b604051601f8301601f19908116603f01168101908282118183101715610b4d57610b4d610ae3565b81604052838152866020858801011115610b6657600080fd5b836020870160208301376000602085830101528094505050505092915050565b60008060408385031215610b9957600080fd5b823567ffffffffffffffff80821115610bb157600080fd5b610bbd86838701610af9565b93506020850135915080821115610bd357600080fd5b50610be085828601610af9565b9150509250929050565b600060208284031215610bfc57600080fd5b610c0582610a61565b9392505050565b60008060408385031215610c1f57600080fd5b610c2883610a61565b9150610c3660208401610a61565b90509250929050565b600181811c90821680610c5357607f821691505b602082108103610c7357634e487b7160e01b600052602260045260246000fd5b50919050565b808201808211156102c057634e487b7160e01b600052601160045260246000fd5b6020808252602b908201527f496e697469616c697a61626c653a20636f6e7472616374206973206e6f74206960408201526a6e697469616c697a696e6760a81b606082015260800190565b601f82111561044e57600081815260208120601f850160051c81016020861015610d0c5750805b601f850160051c820191505b81811015610d2b57828155600101610d18565b505050505050565b815167ffffffffffffffff811115610d4d57610d4d610ae3565b610d6181610d5b8454610c3f565b84610ce5565b602080601f831160018114610d965760008415610d7e5750858301515b600019600386901b1c1916600185901b178555610d2b565b600085815260208120601f198616915b82811015610dc557888601518255948401946001909101908401610da6565b5085821015610de35787850151600019600388901b60f8161c191681555b5050505050600190811b0190555056fea264697066735822122083d5de387114afa0b5c3f00b5b1287ef821b29d58dc66b2e9a724ded7314ae8f64736f6c63430008110033",
        "nonce": "0x4",
        "accessList": []
      },
      "additionalContracts": []
    },
    {
      "hash": "0x768d7aff28ff6015d17c530a3185cc390fafda898cb4248465e9b5efd066f63b",
      "transactionType": "CALL",
      "contractName": "/home/miguelbits/Desktop/zero-knowledgeOfZK/script/BridgeERC20.s.sol:TestERC20",
      "contractAddress": "0x290DE85ac5fcE13997049dA2975E477788830495",
      "function": "initialize(string,string)",
      "arguments": [
        "Test",
        "TST"
      ],
      "rpc": "https://l1rpc.a1.taiko.xyz",
      "transaction": {
        "type": "0x02",
        "from": "0xe5ed6e083a49c5219acce0093cd6279a996cf553",
        "to": "0x290de85ac5fce13997049da2975e477788830495",
        "gas": "0x28d8f",
        "value": "0x0",
        "data": "0x4cd88b76000000000000000000000000000000000000000000000000000000000000004000000000000000000000000000000000000000000000000000000000000000800000000000000000000000000000000000000000000000000000000000000004546573740000000000000000000000000000000000000000000000000000000000000000000000000000000000000000000000000000000000000000000000035453540000000000000000000000000000000000000000000000000000000000",
        "nonce": "0x5",
        "accessList": []
      },
      "additionalContracts": []
    },
    {
      "hash": "0x5b902869430f3f43228ddb44910c20064c984577ed49e43687bdb97b2ba31b72",
      "transactionType": "CALL",
      "contractName": "/home/miguelbits/Desktop/zero-knowledgeOfZK/script/BridgeERC20.s.sol:TestERC20",
      "contractAddress": "0x290DE85ac5fcE13997049dA2975E477788830495",
      "function": "mint(address,uint256)",
      "arguments": [
        "0xe5ED6e083A49C5219Acce0093cd6279A996CF553",
        "1000000000000000000000"
      ],
      "rpc": "https://l1rpc.a1.taiko.xyz",
      "transaction": {
        "type": "0x02",
        "from": "0xe5ed6e083a49c5219acce0093cd6279a996cf553",
        "to": "0x290de85ac5fce13997049da2975e477788830495",
        "gas": "0x1672a",
        "value": "0x0",
        "data": "0x40c10f19000000000000000000000000e5ed6e083a49c5219acce0093cd6279a996cf55300000000000000000000000000000000000000000000003635c9adc5dea00000",
        "nonce": "0x6",
        "accessList": []
      },
      "additionalContracts": []
    },
    {
      "hash": "0x572e5e73df951cbf6bcc6641943535cff643a6ffeeee8ed711d5fe4fd28a00e6",
      "transactionType": "CALL",
      "contractName": "/home/miguelbits/Desktop/zero-knowledgeOfZK/script/BridgeERC20.s.sol:TestERC20",
      "contractAddress": "0x290DE85ac5fcE13997049dA2975E477788830495",
      "function": "approve(address,uint256):(bool)",
      "arguments": [
        "0xD0dfd5baCf160B97C8eE3ecb463F18c08673160c",
        "1000000000000000000000"
      ],
      "rpc": "https://l1rpc.a1.taiko.xyz",
      "transaction": {
        "type": "0x02",
        "from": "0xe5ed6e083a49c5219acce0093cd6279a996cf553",
        "to": "0x290de85ac5fce13997049da2975e477788830495",
        "gas": "0xf9a9",
        "value": "0x0",
        "data": "0x095ea7b3000000000000000000000000d0dfd5bacf160b97c8ee3ecb463f18c08673160c00000000000000000000000000000000000000000000003635c9adc5dea00000",
        "nonce": "0x7",
        "accessList": []
      },
      "additionalContracts": []
    },
    {
      "hash": "0x7c5579a310f30c71cc67eae6054c815f30691a1ed77a4acfdc8e8a588fe98e10",
      "transactionType": "CALL",
      "contractName": null,
      "contractAddress": "0xD0dfd5baCf160B97C8eE3ecb463F18c08673160c",
      "function": null,
      "arguments": null,
      "rpc": "https://l1rpc.a1.taiko.xyz",
      "transaction": {
        "type": "0x02",
        "from": "0xe5ed6e083a49c5219acce0093cd6279a996cf553",
        "to": "0xd0dfd5bacf160b97c8ee3ecb463f18c08673160c",
        "gas": "0x396a4",
        "value": "0x0",
        "data": "0xee1490b20000000000000000000000000000000000000000000000000000000000028c5b000000000000000000000000e5ed6e083a49c5219acce0093cd6279a996cf553000000000000000000000000290de85ac5fce13997049da2975e47778883049500000000000000000000000000000000000000000000003635c9adc5dea0000000000000000000000000000000000000000000000000000000000000000186a00000000000000000000000000000000000000000000000000000000000000000000000000000000000000000e5ed6e083a49c5219acce0093cd6279a996cf5530000000000000000000000000000000000000000000000000000000000000100000000000000000000000000000000000000000000000000000000000000001374657374696e672062726964676f6f6f6f6f7200000000000000000000000000",
        "nonce": "0x8",
        "accessList": []
      },
      "additionalContracts": []
    }
  ],
  "receipts": [],
  "libraries": [],
  "pending": [
    "0x74ad510e7ccf585157c19d2f55256ea5f87a4022ef3549437363d77f8de9c2d9",
    "0x768d7aff28ff6015d17c530a3185cc390fafda898cb4248465e9b5efd066f63b",
    "0x5b902869430f3f43228ddb44910c20064c984577ed49e43687bdb97b2ba31b72",
    "0x572e5e73df951cbf6bcc6641943535cff643a6ffeeee8ed711d5fe4fd28a00e6",
    "0x7c5579a310f30c71cc67eae6054c815f30691a1ed77a4acfdc8e8a588fe98e10"
  ],
  "path": "/home/miguelbits/Desktop/zero-knowledgeOfZK/broadcast/BridgeERC20.s.sol/31338/run-latest.json",
  "returns": {},
  "timestamp": 1674840635,
  "chain": 31338,
  "multi": false,
  "commit": "397509f"
}